:100000000C94B3000C94D4000C94D4000C94D40041
:100010000C94D4000C94D4000C94D4000C94D40010
:100020000C94D4000C94D4000C94D4000C94D40000
:100030000C94D4000C94D4000C94D4000C94D400F0
:100040000C94D4000C94D4000C94D4000C94D400E0
:100050000C94D4000C94D4000C94D4000C94D400D0
:100060000C94D4000C94D4000C94D4000C94D400C0
:100070000C94D4000C94D4000C94D4000C94D400B0
:100080000C94D4000C94D4000C94D4000C94D400A0
:100090000C94D4000C94D4000C94D4000C94D40090
:1000A0000C94D4000C94D4000C94D4000C94D40080
:1000B0000C94D4000C94D4000C94D4000C94D40070
:1000C0000C94D4000C94D4000C94D4000C94D40060
:1000D0000C94D4000C94D4000C94D4000C94D40050
:1000E0000C94D40008000000BE922449123EABAA32
:1000F000AA2ABECDCCCC4C3E00000080BEABAAAA42
:10010000AA3E00000000BF000000803F0000000089
:1001100000084178D3BB4387D1133D190E3CC3BDC2
:100120004282AD2B3E68EC8276BED98FE1A93E4C6F
:1001300080EFFFBE01C4FF7F3F00000000000763A7
:100140004236B79BD8A71A39685618AEBAAB558C49
:100150001D3CB7CC5763BD6DEDFD753EF617723192
:10016000BF000000803F11241FBECFEFD1E2DEBFF1
:10017000CDBF00E00CBF12E0A0E0B2E0ECE5F0E1A2
:1001800000E00BBF02C007900D92AA36B107D9F765
:1001900012E0AAE6B2E001C01D92A637B107E1F76E
:1001A0000E944A020C942C080C9400008770806214
:1001B00080937C00EAE7F0E0808180648083808126
:1001C00084FFFDCF80917900EAE7F0E090819061B3
:1001D000908310927B0090E00895CF92DF92EF928F
:1001E000FF92CF93DF930E94D600EC0160916502ED
:1001F00070916602882777FD8095982F0E94B1053F
:100200006B017C016FEF70E06C1B7D0B80E090E078
:100210000E94AF059B01AC01C701B6010E94820696
:100220006B017C01BE0180E090E00E94AF059B0164
:10023000AC01C701B6010E941605462F572F682F43
:10024000792FCB01BA01DF91CF91FF90EF90DF9032
:10025000CF900895CF92DF92EF92FF920F931F936A
:10026000CF93DF936C010F2EF2E3EF2EFF24F02DDE
:10027000C0E0D0E010E000E0C6010E94ED009B016C
:10028000AC018C2F9D2FA12FB02FBC01CD010E945E
:10029000B204C62FD72F182F092F89E590E8A6E1C1
:1002A00081509040A040E1F700C000000894E108B0
:1002B000F108E114F10401F78C2F9D2FA12FB02F2D
:1002C000BC01CD0120E030E048E452E40E94160574
:1002D000462F572F682F792FCB01BA012091610249
:1002E0003091620240916302509164020E941605AF
:1002F000462F572F682F792FCB01BA01DF91CF916D
:100300001F910F91FF90EF90DF90CF900895CF92C3
:10031000DF92EF92FF920F931F93CF93DF936C01C5
:100320000F2EF5E0EF2EFF24F02DC0E0D0E010E01E
:1003300000E0C6010E94ED009B01AC018C2F9D2FB7
:10034000A12FB02FBC01CD010E94B204C62FD72F20
:10035000182F092F88E090E4A2E081509040A0403F
:10036000E1F700C000000894E108F108E114F1048D
:1003700001F78C2F9D2FA12FB02FBC01CD0120E0C4
:1003800030E040EA50E40E941605462F572F682FB0
:10039000792FCB01BA01DF91CF911F910F91FF907F
:1003A000EF90DF90CF900895CF93DF93EA010E9402
:1003B00042062C813D814E815F810E94B1042885D7
:1003C00039854A855B850E941605288139814A81D5
:1003D0005B810E94B2049B01AC0160E070E080E2AE
:1003E00091E40E94E506462F572F682F792FCB0105
:1003F000BA010E947E05DF91CF9108950F931F935C
:100400004115510539F44DE452E00E94D4018B01AD
:100410009C0117C04130510539F441E452E00E947B
:10042000D4018B019C010DC04230510539F445E3E4
:1004300052E00E94D4018B019C0103C000E010E057
:100440009801602F712F822F932F1F910F91089584
:1004500087B1876F87B988B1887088B9089510BA55
:1004600011BAEAE7F0E0108210927B0080E28093FC
:100470007C0080E880BF86E8808308950E9428027F
:100480000E942F020895F8940E943E020E946E037B
:10049000789408950E94430281E061E040E052E0D8
:1004A0000E94D70384E090E00E942A01DC01CB0186
:1004B0008093310290933202A0933302B0933402BE
:1004C0000E94A90381E061E04FE052E00E94D7035F
:1004D00082E061E047E152E00E94D703609131027F
:1004E0007091320280913302909134020E947E0515
:1004F0008B019C0182E065E0A80126E030E00E94CB
:10050000F30382E06CE04CE152E00E94D7038BE100
:1005100092E0A7E881509040A040E1F700C00000C1
:10052000C1E2D2E006E212E00F2EFAE22F2EF2E054
:100530003F2EF02D84E090E00E948701209131024F
:100540003091320240913302509134020E941605DC
:1005500040E050E00E94FE012B013C0184E090E06D
:100560000E94870120913102309132024091330282
:10057000509134020E94160541E050E00E94FE01B5
:100580004B015C0184E090E00E94870120913102E0
:100590003091320240913302509134020E9416058C
:1005A00042E050E00E94FE016B017C010E94A90321
:1005B00081E061E0AE010E94D70381E065E0A20125
:1005C00024E030E00E94F30381E069E0A8010E948A
:1005D000D70381E06CE0A40124E030E00E94F30343
:1005E00082E061E0A1010E94D70382E067E0A601FA
:1005F00024E030E00E94F30381E190E8A4E0815020
:100600009040A040E1F700C0000094CF86E69EE055
:100610000197F1F700004098419880E388B9429A29
:10062000EFEFF7E43197F1F700C000004298E6E6FB
:10063000FEE03197F1F700004098419888B9429A5E
:10064000EFEFF7E43197F1F700C000004298E6E6DB
:10065000FEE03197F1F700004098419888B9429A3E
:100660008FEF97E40197F1F700C000004298E6E6AB
:10067000FEE03197F1F700004098419880E288B998
:10068000429A8FEF97E40197F1F700C0000042987B
:10069000089598B19F7098B998B1282F207F922B18
:1006A00098B940984198429AEFEFF7E43197F1F703
:1006B00000C00000429898B19F7098B998B1829597
:1006C000807F892B88B940984198429A8FEF97E4B0
:1006D0000197F1F700C00000429808950E940603B8
:1006E00086E69EE00197F1F7000088E20E94490348
:1006F00081E00E94490386E00E9449038EE00E9447
:10070000490380E80E944903089580E80E94490354
:100710000895823079F0833018F48130C9F405C02F
:10072000833069F08430A1F40FC0862F81580E9475
:1007300049030895862F81540E9449030895862F06
:100740008D560E9449030895862F8D520E944903B9
:10075000089581E00E9449030895CF93C42F0E9419
:10076000890388B18F7088B988B19C2F907F892BBD
:1007700088B9409A4198429A8FEF97E40197F1F730
:1007800000C00000429888B18F7088B988B1C295C6
:10079000C07FC82BC8B9409A4198429A8FEF97E41E
:1007A0000197F1F700C000004298CF9108950F9390
:1007B0001F93CF93DF93D82FC62FFA014081442394
:1007C00069F08F010F5F1F4F8D2F6C2F0E94AD03BB
:1007D000CF5FF80141918F014423B1F7DF91CF91B1
:1007E0001F910F910895EF92FF920F931F93CF9354
:1007F000DF93D82FC62F7A0189010E948903FF2039
:100800005CF4F094E194F108F3948D2F6C2F47E69B
:1008100052E00E94D703CF5FDD2311F0CC2319F4FF
:100820000E94850304C08D2F6C2F0E948903053020
:10083000110591F4C70160E177E20E941908AB014C
:10084000405D5F4F50936B0240936A028D2F6C2F77
:100850000E94AD03CF5F03C004301105E1F4C7016E
:1008600068EE73E00E941908CB0170936D026093EB
:100870006C026AE070E00E940508AC01405D5F4FC9
:1008800050937502409374028D2F6C2F0E94AD031C
:10089000CF5F81E001C080E00330110511F08130AD
:1008A000D9F4C70164E670E00E941908CB01709387
:1008B0006D0260936C026AE070E00E940508AC0172
:1008C000405D5F4F50937102409370028D2F6C2FEB
:1008D0000E94AD03CF5F81E00230110511F081303D
:1008E000D9F42AE030E0C701B9010E941908CB0110
:1008F00070936D0260936C02B9010E940508AC010F
:10090000405D5F4F50936F0240936E028D2F6C2FAE
:100910000E94AD03CF5F81E00130110511F08130FD
:1009200089F4C7016AE070E00E941908AC01405DDB
:100930005F4F50937302409372028D2F6C2F0E9471
:10094000AD03CF5F063011052CF08D2F6C2F45E4E1
:100950000E94AD03DF91CF911F910F91FF90EF9017
:1009600008955058BB27AA270ED04DC13ED130F074
:1009700043D120F031F49F3F11F41EF433C10EF443
:10098000E095E7FB29C1E92F4FD180F3BA17620741
:1009900073078407950718F071F49EF567C10EF48C
:1009A000E0950B2EBA2FA02D0B01B90190010C017F
:1009B000CA01A0011124FF27591B99F0593F50F497
:1009C000503E68F11A16F040A22F232F342F4427EF
:1009D000585FF3CF469537952795A795F0405395E7
:1009E000C9F77EF41F16BA0B620B730B840BBAF0B7
:1009F0009150A1F0FF0FBB1F661F771F881FC2F722
:100A00000EC0BA0F621F731F841F48F48795779535
:100A10006795B795F7959E3F08F0B3CF9395880FEC
:100A200008F09927EE0F9795879508950CD0EBC0A5
:100A3000E3D040F0DAD030F021F45F3F19F0CCC0C1
:100A4000511115C1CFC0F0D098F39923C9F35523A4
:100A5000B1F3951B550BBB27AA27621773078407B1
:100A600038F09F5F5F4F220F331F441FAA1FA9F367
:100A700033D00E2E3AF0E0E830D091505040E69559
:100A8000001CCAF729D0FE2F27D0660F771F881FBA
:100A9000BB1F261737074807AB07B0E809F0BB0BA9
:100AA000802DBF01FF2793585F4F2AF09E3F5105CD
:100AB00068F092C0DCC05F3FECF3983EDCF38695B3
:100AC00077956795B795F7959F5FC9F7880F911D43
:100AD0009695879597F90895E1E0660F771F881F2F
:100AE000BB1F621773078407BA0720F0621B730BE2
:100AF000840BBA0BEE1F88F7E095089504D0689434
:100B0000B111B5C0089598D088F09F5790F0B92FD3
:100B10009927B751A0F0D1F0660F771F881F991F52
:100B20001AF0BA95C9F712C0B13081F09FD0B1E088
:100B300008959CC0672F782F8827B85F39F0B93F98
:100B4000CCF3869577956795B395D9F73EF4909554
:100B50008095709561957F4F8F4F9F4F0895E894D2
:100B600009C097FB3EF490958095709561957F4FF5
:100B70008F4F9F4F9923A9F0F92F96E9BB279395A3
:100B8000F695879577956795B795F111F8CFFAF4B3
:100B9000BB0F11F460FF1BC06F5F7F4F8F4F9F4FE4
:100BA00016C0882311F096E911C0772321F09EE842
:100BB000872F762F05C0662371F096E8862F70E0A8
:100BC00060E02AF09A95660F771F881FDAF7880F82
:100BD0009695879597F9089597F99F6780E870E053
:100BE00060E008959FEF80EC089500240A941616A3
:100BF000170618060906089500240A94121613060B
:100C0000140605060895092E0394000C11F4882398
:100C100052F0BB0F40F4BF2B11F460FF04C06F5FB4
:100C20007F4F8F4F9F4F089557FD9058440F551F8A
:100C300059F05F3F71F04795880F97FB991F61F05E
:100C40009F3F79F087950895121613061406551FD5
:100C5000F2CF4695F1DF08C0161617061806991F41
:100C6000F1CF86957105610508940895E894BB2736
:100C700066277727CB0197F908950EF023C1B2CFED
:100C80006894AACFD9DFC8F39923D1F3C6F3DF93D1
:100C9000CF931F930F93FF92C92FDD2788232AF04C
:100CA0002197660F771F881FDAF720E030E040E8D1
:100CB0005FEB9FE3883920F0803E30F021968F77FC
:100CC00051DEE4EEF0E003C04DDEE1E1F1E008D1F9
:100CD0008B01BE01EC01FB2E6F5771097595771FD3
:100CE000880B990B3EDF28E132E741E35FE316D042
:100CF000AF2D9801AE01FF900F911F91CF91DF9121
:100D000042DE81CF0BD07FCF70DF28F075DF18F087
:100D1000952309F061CF66CF1124A9CF85DFA0F319
:100D2000959FD1F3950F50E0551F629FF001729F80
:100D3000BB27F00DB11D639FAA27F00DB11DAA1F9F
:100D4000649F6627B00DA11D661F829F2227B00DEC
:100D5000A11D621F739FB00DA11D621F839FA00D77
:100D6000611D221F749F3327A00D611D231F849FC7
:100D7000600D211D822F762F6A2F11249F5750401E
:100D80008AF0E1F088234AF0EE0FFF1FBB1F661FB9
:100D9000771F881F91505040A9F79E3F510570F072
:100DA0001BCF65CF5F3FECF3983EDCF386957795DC
:100DB0006795B795F795E7959F5FC1F7FE2B880F6D
:100DC000911D9695879597F90895FA01EE0FFF1FEB
:100DD00030962105310599F16115710561F480386E
:100DE000BFE39B0749F168949038810561F0803832
:100DF000BFEF9B0741F0992342F5FF3FE105310525
:100E0000210511F1E8940894E795D901AA2329F462
:100E1000AB2FBE2FF85FD0F310C0FF5F70F4A69524
:100E2000E0F7F73950F019F0FF3A38F49F779F93C5
:100E30000CD00F9007FC905808953EF0D3CE60E0A0
:100E400070E080E89FE308954FE79F775F934F93AB
:100E50003F932F9317DF2F913F914F915F9152DF77
:100E600005C019F40EF0B8CE01CFBCCEE5DEC8F354
:100E70009638C0F707F80F92E8942BE33AEA48EB6C
:100E80005FE74EDF0F920F920F924DB75EB70F9252
:100E900089D0EEE3F1E024D04F915F91EF91FF9183
:100EA000E595EE1FFF1F49F0FE57E0684427EE0F5F
:100EB000441FFA95E1F74195550B40D00F9007FE7E
:100EC00034C008959F3F31F0915020F48795779575
:100ED0006795B795880F911D9695879597F9089511
:100EE000DF93CF931F930F93FF92EF92DF927B01DB
:100EF0008C01689405C0DA2EEF0110DFFE01E89442
:100F0000A5912591359145915591AEF3EF013BDDCA
:100F1000FE019701A801DA9479F7DF90EF90FF9036
:100F20000F911F91CF91DF9108959B01AC0160E07B
:100F300070E080E89FE37ACD4FCEC4CF7DDEE8F34A
:100F40009923D9F3940F511DBBF39150504094F065
:100F500059F0882332F0660F771F881F9150504058
:100F6000C1F79E3F510544F7880F911D96958795CF
:100F700097F908955F3FACF0983E9CF0BB278695AB
:100F800077956795B79508F4B1609395C1F7BB0F56
:100F900058F711F460FFE8CF6F5F7F4F8F4F9F4F7F
:100FA000E3CF65CEFA01DC01AA0FBB1F9B01AC01A8
:100FB000BF5728F422273327442750781FC0B75142
:100FC00088F4AB2F0024469537952795011CA395EF
:100FD000D2F3002069F0220F331F441FB395DAF3D8
:100FE0000DD0BFCC61307105A0E88A07B94630F456
:100FF0009B01AC016627772788279078309621F0EF
:1010000020833183428353830895AA1BBB1B51E184
:1010100007C0AA1FBB1FA617B70710F0A61BB70B68
:10102000881F991F5A95A9F780959095BC01CD010D
:10103000089597FB092E07260AD077FD04D0E5DF37
:1010400006D000201AF4709561957F4F0895F6F749
:0C105000909581959F4F0895F894FFCF74
:10105C0043616C6962726174696E672E2E2E004456
:10106C006F6E65212E2E00526F3D20006B4F686D08
:10107C00004C50473D00434F3D00536D6F6B653D39
:10108C0000000020413333134014AE073FAE47E15C
:10109C00BE33331340EC51383F7B14AEBE333313A5
:1010AC00403D0A573ED7A3F0BE05003200F4013292
:0A10BC0000AE471D4105002D0000A5
:00000001FF
